:020000041000EA
:1000000000B5324B212058609868022188439860DF
:10001000D860186158612E4B002199600221596106
:100020000121F02299502B49196001219960352056
:1000300000F044F80222904214D00621196600F024
:1000400034F8196E01211966002018661A6600F04E
:100050002CF8196E196E196E052000F02FF8012189
:100060000842F9D1002199601B49196000215960AB
:100070001A491B48016001219960EB211966A021F2
:10008000196600F012F800219960164914480160C1
:100090000121996001BC002800D000471248134993
:1000A000086003C880F30888084703B5996A0420EC
:1000B0000142FBD001200142F8D103BD02B5186610
:1000C0001866FFF7F2FF186E186E02BD00000240BE
:1000D000000000180000070000035F00212200005C
:1000E000F4000018222000A00001001008ED00E03C
:1000F00000000000000000000000000074B24E7A12
:1001000000200420F7010010CB010010CD010010E9
:10011000C9010010C9010010C9010010C901001077
:10012000C9010010C9010010C9010010CF01001061
:10013000C9010010C9010010D1010010D301001045
:10014000C1010010C1010010C1010010C101001067
:10015000C1010010C1010010C1010010C101001057
:10016000C1010010C1010010C1010010C101001047
:10017000C1010010C1010010C1010010C101001037
:10018000C1010010C1010010C1010010C101001027
:10019000C1010010C1010010C1010010C101001017
:1001A000C1010010C1010010C1010010C101001007
:1001B000C1010010C1010010C1010010C1010010F7
:1001C000EFF30580103800BE00BE00BE00BE00BECA
:1001D00000BE00BEF2EB887100C9011020C90110F9
:1001E0003802001090A31AE71E481F49086006C88D
:1001F00081F3088810471D480068002801D019487D
:10020000F3E70DA40ECC002902D000F012F8F9E7B4
:100210001749184A002000E001C19142FCD116495B
:100220008847164988471649884700BEFDE701C937
:1002300001C29A42FBD3704720C90110C0000020C0
:100240001813002078DB01100000042000000420B7
:1002500078DB0110001004200010042000000000D2
:10026000704700000000000008ED00E0000000D032
:10027000181300200C440020A9BC0010591A0010CB
:10028000A1BC0010F8B5C0460448054B10B5834228
:1002900003D0044B002B00D0984710BD181300204A
:1002A000181300200000000006480749091A8B10A7
:1002B000C90FC91810B5491003D0044B002B00D04A
:1002C000984710BD181300201813002000000000EC
:1002D00010B5074C2378002B09D1FFF7D5FF054B4C
:1002E000002B02D0044800E000BF0123237010BDA2
:1002F000A015002000000000E0EF0010054B10B535
:10030000002B03D00449054800E000BFFFF7CCFFF5
:1003100010BDC04600000000A4150020E0EF001052
:100320001A4B70B51D681A4B0C001E684519002148
:10033000301C09F075FF002813D1200009F084FF5C
:10034000144B196809F03DFF134B196809F022FF9F
:1003500009F0DCFF011C301C09F033FF09F096FFA7
:100360002D18F92D11D80D4B0C341B68E418792C7D
:100370000BD8072281212A4049421141EB10640128
:10038000E418074B1A5D0A401A5570BD3C1E002048
:10039000F4430020F8430020FC430020401E0020CE
:1003A000542F002010B50A200BF000FE2F4C200027
:1003B0000BF048FE2E480BF045FE20000BF042FEED
:1003C0000A200BF0F3FD2B480BF03CFE2A480BF003
:1003D00039FE2A480BF036FE29480BF033FE294837
:1003E0000BF030FE28480BF02DFE0A200BF0DEFD4E
:1003F00026480BF027FE26480BF024FE25480BF07C
:1004000021FE25480BF01EFE0A200BF0CFFD2348ED
:100410000BF018FE22480BF015FE22480BF012FEDE
:1004200021480BF00FFE21480BF00CFE20480BF08A
:1004300009FE20480BF006FE1F480BF003FE1F4884
:100440000BF000FE0A200BF0B1FD1D480BF0FAFD89
:100450001C480BF0F7FD1C480BF0F4FD20000BF0DE
:10046000F1FD0A200BF0A2FD10BDC046E0EF001028
:100470000CF0001038F000104CF0001070F000107C
:1004800090F00010B0F00010D4F00010F8F0001060
:100490000CF1001030F1001054F1001070F1001058
:1004A00090F10010B0F10010D0F10010F0F1001048
:1004B00010F200102CF200104CF200106CF2001040
:1004C0008CF2001098F20010B4F20010002300210A
:1004D00070B5154C154AA544154D01AE14788442EB
:1004E00002D18C00A351013101330832AB42F5D166
:1004F000104D2A6850035040420C42405401544071
:1005000000290AD0200009F0B3FA01AB8900C858CD
:100510002C60CE231B019D4470BD1900200009F002
:10052000A7FA0800F4E7C04620F3FFFF60A9011016
:1005300037030000CC420020F0B54546DE46574662
:100540004E46E0B580460800117895B01393002917
:1005500000D1C8E18A4B814606938A4B45469A46AC
:10056000894B50460C93434603931300002405E047
:10057000597801330134002900D129E22029F7D12B
:1005800003998D420CDA0399660036197600491BEF
:100590008919139EB14203DD09218C460395E1447C
:1005A000002C00D119E2039990460E1D0296CE1C34
:1005B0000A0001964F1C8E1C21004144079107211F
:1005C00049448A4670490F930E91514610941192F6
:1005D000129543461A781300613B192B01D8203A33
:1005E000D2B20025412304E00135435D002B00D148
:1005F000C5E19A42F8D1EB00069A9C465B1BD35C9E
:10060000039AF92A00D8A6E06246521B069D4C4682
:10061000AC46121B62440492022292460632934672
:10062000C1460597089409904DE0059FF92F4FD8D2
:10063000002C00DAA8E1792C00DDBCE1F81084463A
:1006400007203840802707416501AC44B846604622
:100650004D4D2F5C404638438046604647462F54F8
:100660005D076AD5F92E49D8792C3ADC60018446B9
:100670000720802730400741F510AC44B84660465B
:10068000414D2F5C404638438046604647462F54D4
:10069000002A54D101221A4210D0029BF92B0DD806
:1006A000792C0BDC02986201C3109B1807221040C2
:1006B00079320241344DE85C0243EA540134A142EC
:1006C00016D0049B1B5D52465D461A401D42ACD1BC
:1006D00004251D4212D0F92E10D8002CEEDB792C07
:1006E000C4DD002AEAD1DB07D7D40134A142E8D126
:1006F000089BC846059F99460998CDE0002A21D05D
:10070000019AF92A1ED8002CD8DB792CD6DC019866
:100710006501C210571907220240904680224046C8
:100720000241194D9446EA5D9046624640460243B6
:10073000EA5501221A42B0D1C0E7002A02D0019A3C
:10074000F92AE2D901221A42B8D0029BF92BB5D876
:10075000002CA5DAB2E76446641B069D4A46AC4607
:10076000A41A644404940824A446063CA3460E3408
:10077000A24644460992B046089405970A9043E081
:10078000C4A5011090A50110542F0020002A00DA02
:1007900005E1792A00DCADE0002802D00398F928B1
:1007A0002DD0580700D4E2E04046F92800D8DEE01A
:1007B000002C5FD00198F9285CD8792A1FDC019EB3
:1007C0000725F41050010019802435402C410C9E5F
:1007D000355C2C4334540120184210D0029BF92B75
:1007E0000DD8792A0BDC029D0724E81053011B1851
:1007F00080202C4020410C9DEC5C2043E8540132C9
:10080000914242D0049B9B5C60465C465546184032
:100810001C401D42BAD1002800D184E00598F92877
:1008200000D980E0002A00DA9BE0792AB9DC500187
:1008300081460E9D0598059FC61007200740793018
:1008400038414E44AF5D3843A8555807B0D54046AF
:10085000F92800D97BE040460727C61007408020D2
:1008600038414E44AF5D3843A855002CB3D00198B1
:10087000F928A2D901201842C1D0029BF92BBED879
:10088000002AAEDA01329142BCD1089B4646984616
:10089000099B059F99460A98039B063606330393E6
:1008A00001239C46029BE04406330293019B0637DA
:1008B00006330193079B434500D08AE6109C119AAA
:1008C000610009190F9B49008A1803921A00129DB2
:1008D0001978202904D1039A5978063203925A1CB8
:1008E000002900D041E615B0F0BCBB46B246A9468F
:1008F000A046F0BD039F5601FD10B14676190B9638
:100900000726374079363E41354D0B9F0D96EE5DFB
:100910000D9F37433E000B9FEE55002812D00598DF
:10092000F92800D886E70420184210D04046F9285C
:100930000DD8002A00DA62E7792A18DC50018146D6
:100940000E9D88E7580702D54046F928F4D9002CB7
:1009500090D00198F92800D98CE7002A00DB2CE719
:100960004DE7580703D54046F92800D847E7002C43
:1009700000D17FE70198F92800D840E77AE7902274
:100980005200242594463BE65D0700D496E6002AF3
:1009900000D1D7E6019AF92A00D88FE6D2E60028DE
:1009A000DFD00598F928DCD95807D0D54046F9287A
:1009B00000D824E7CBE75D0702D5F92E00D9BCE6C5
:1009C000002A00D18FE6019AF92A00D876E68AE655
:1009D00003998D4200DAD6E5E5E51A00197878E743
:1009E000542F00201A4B70B51D681A4B0C001E685E
:1009F00045190021301C09F013FC002813D12000F8
:100A000009F022FC144B196809F0DBFB134B196841
:100A100009F0C0FB09F07AFC011C301C09F0D1FB85
:100A200009F034FC2D18F92D10D80D4B0C341B682F
:100A3000E418792C0AD8EB1007216401E41880230C
:100A400029400B41074A115D0B43135570BDC04649
:100A50003C1E0020F4430020F8430020FC4300200B
:100A6000401E0020542F0020F0B54546DE46574674
:100A70004E468846D44B14001A68D44BE0B51B6828
:100A800097B09A46D24B07911B6811000093D14B47
:100A900005921B68D3460193CF4B1B6807339844DC
:100AA00043465B019946431F9C4662441092021FD5
:100AB000944611930B0012926344C21E9446159300
:100AC0000B0063448C461493831E63440B93431EB4
:100AD000634484440F9363468C460C93431C6344E5
:100AE0000A93831C63440993C31C63440893031D46
:100AF000634405300E93030063440D9305235B426A
:100B00001D0013922E00002158466E4309F088FB09
:100B1000002800D0EAE04346792B00D9D5E0079BB6
:100B20009A4619239C46B4446346AA4402936445FA
:100B300000DA55E1504609F087FB009909F041FBC6
:100B4000019909F027FB09F0E1FB011C584609F067
:100B500038FB09F09BFB059A119B94466344C0182F
:100B6000F9280AD80721C2100140812040420841DB
:100B70009A4B4A44995C0140995410239C46B444D2
:100B800063460493644500DB31E109239C46B44489
:100B900063460393504609F057FB009909F011FB97
:100BA000019909F0F7FA09F0B1FB059B139F9C46E8
:100BB000011C5846674409F004FB09F067FB3F1825
:100BC000F92F0AD807218120394040420841834B40
:100BD000FA104A44995C01409954371DBC4200DB2D
:100BE00034E1731C06939C4200DB54E1A64200DC16
:100BF00072E1039B9C4220DB504609F025FB0099E3
:100C000009F0DFFA019909F0C5FA09F07FFB011C30
:100C1000584609F0D6FA09F039FB089B9C46604417
:100C2000F9280AD80721C21001408120404208411A
:100C30006A4B4A44995C01409954049B9C4220DBD6
:100C4000504609F001FB009909F0BBFA019909F03F
:100C5000A1FA09F05BFB011C584609F0B2FA09F051
:100C600015FB0E9B9C466044F9280AD80721C21048
:100C70000140812040420841584B4A44995C014060
:100C80009954029B9C4220DB504609F0DDFA009902
:100C900009F097FA019909F07DFA09F037FB011C78
:100CA000584609F08EFA09F0F1FA0D9B9C46604413
:100CB000F9280AD8C210494B4A4407210140812033
:100CC00040420841995C0140995401239C461F33DE
:100CD000E0449C460135E144062D00D012E717B0F0
:100CE000F0BCBB46B246A946A046F0BD3200193260
:100CF000944200DA5BE1109BF92B00D828E2310026
:100D0000103102918C4200DAF3E1159BF92B00D9E6
:100D10006FE24346792B00D99EE2304B07271599A5
:100D2000C8103940883F0F41BC46614648441F5CAB
:100D30000F401F5409239A46B244544500DB22E277
:100D4000301D844200DBBDE1771CBC4200DB46E184
:100D5000A64200DCE2E1844200DA76E1099BF92B4D
:100D600000D972E14346792B00D931E21B4B0726AB
:100D7000812709997F420E403741C81048441E5CC4
:100D80003E401E54544500DB61E2029B9C4200DA67
:100D90007AE10E9BF92B00D976E14346792B94D862
:100DA0000E4B07200E9E3040F11081267642064100
:100DB0004944585C30405854944200DA85E70D9A13
:100DC000F92A00D86CE180E73C1E0020F4430020A3
:100DD000F8430020FC430020401E0020542F002038
:100DE00010239C46B44463460493644522DB50467A
:100DF00009F02AFA009909F0E4F9019909F0CAF911
:100E000009F084FA059B129F9C46011C58466744D2
:100E100009F0D7F909F03AFA3F18F92F0AD8072153
:100E20008120394040420841C84BFA104A44995C3D
:100E30000140995409239C46B44463460393644596
:100E400000DBA7E6371DBC4200DACAE6504609F0CF
:100E5000FBF9009909F0B5F9019909F09BF909F03E
:100E600055FA011C584609F0ACF909F00FFA0B9B32
:100E70009C466044F9280AD80721C210014081200D
:100E800040420841B14B4A44995C01409954731C5B
:100E900006939C4220DB504609F0D6F9009909F0F0
:100EA00090F9019909F076F909F030FA011C5846D9
:100EB00009F087F909F0EAF90F9B9C466044F9288C
:100EC0000AD80721C21001408120404208419F4BAF
:100ED0004A44995C01409954504609F0B5F900998B
:100EE00009F06FF9019909F055F909F00FFA011CA1
:100EF000584609F066F909F0C9F90C9B9C46604414
:100F0000F9280AD80721C210014081204042084137
:100F10008E4B4A44995C01409954069B9C4220DBCD
:100F2000504609F091F9009909F04BF9019909F03F
:100F300031F909F0EBF9011C584609F042F909F0C2
:100F4000A5F90A9B9C466044F9280AD80721C210DB
:100F500001408120404208417C4B4A44995C014059
:100F60009954BC4200DA44E6504609F06DF9009904
:100F700009F027F9019909F00DF909F0C7F9011CE9
:100F8000584609F01EF909F081F9099B9C46604416
:100F9000F92800D92DE60721C210014081204042E6
:100FA00008416A4B4A44995C0140995421E631005A
:100FB000103102918C4200DABCE6159BF92B00D966
:100FC000B8E64346792B00D8A7E609239A46B244EF
:100FD000544500DB43E1301D844273DA771C0F9BDC
:100FE000F92B00D99AE04146792900D9E0E0DE10DA
:100FF0004E441900039607260E4081214942314193
:10100000524B039E9E5D3140039E99550C99F929E0
:1010100000D88BE0BC4200DA9DE60A9BF92B00D990
:1010200099E64346792B00D9CCE007270A99474B2C
:10103000CE103940883F0F41BC4661464E449F5D0B
:101040000F409F55844200DBF4E0544500DA9CE6F3
:10105000089BF92B00D998E64346792B00D934E652
:101060003A4B0726812708997F420E403741C81026
:1010700048441E5C02993E401E548C4200DA9BE6B6
:101080000E99F92900D88CE6944200DA1DE60D9BF2
:10109000F92B00D919E64346792B00D915E62B4BDD
:1010A0000D98C2104A4408E63100103102918C427A
:1010B00000DBA6E009239A46149BB244F92B00D822
:1010C00092E0301D0B9BF92B00D93DE64346792B6E
:1010D0001DD80B991D4BCF104F44039707270F4086
:1010E000812149423941039FDF5D3940039FD95532
:1010F0002AE609239A46149BB244F92BE1D84346C9
:10110000792B47D9301D0B9BF92B00D91CE6771C96
:10111000BC4200DA86E00F9BF92B49D90C9BF92BD6
:1011200000D977E74346792B46D8084B0C99CE1067
:101130004E44039607260E40812149423141039EC9
:101140009E5D3140039E995564E7C046542F0020B0
:101150004346792BA8D80720109F464B3840F910FA
:1011600081277F4207414944585C38405854310038
:10117000103102918C4262DB1599F92900D8CDE536
:1011800009239A46B244149BF92B00D9D8E543466B
:10119000792B29D8374B07271499C8103940883F35
:1011A0000F41BC46614648441F5C0F401F54C7E5D1
:1011B0000C9BF92B00D92DE7BC4237DB0A9BF92B9E
:1011C00000D9C8E5844229DB099BF92B00D93CE70B
:1011D000544500DA58E7089BF92B00D9D5E5029B66
:1011E0009C4200DB50E770E5301D844200DAABE53D
:1011F00089E709239A46149BB244F92BC7D9301DBD
:1012000060E7159BF92B00D954E709239A46149BF4
:10121000B244F92B00D875E7301D53E7544500DA86
:10122000B3E5D8E70C9BF92B00D994E5844200DAAA
:101230000BE7C9E70999F92900D898E505E70921DD
:101240008A461499B244F929A5D9301D3AE708997C
:10125000F92900D805E798E509239A46B244149B7A
:10126000F92B00D9B7E6301D844200DB4BE7771C31
:10127000B5E6C046542F0020F0B54546DE46574639
:101280004E468846D04B14001A68D04BE0B51B6818
:1012900097B09A46CE4B07911B6811000093CD4B37
:1012A00005921B68D3460193CB4B1B6807339844C8
:1012B00043465B019946431F9C4662441092021FBD
:1012C000944611930B0012926344C21E94461593E8
:1012D0000B0063448C461493831E63440B93431E9C
:1012E000634484440F9363468C460C93431C6344CD
:1012F0000A93831C63440993C31C63440893031D2E
:10130000634405300E93030063440D9305235B4251
:101310001D0013922E00002158466E4308F080FFF6
:10132000002800D0E5E04346792B00D9D0E0079BA8
:101330009A4619239C46B4446346AA4402936445E2
:1013400000DA4DE1504608F07FFF009908F039FFC0
:10135000019908F01FFF08F0D9FF011C584608F05A
:1013600030FF08F093FF059A119B94466344C01820
:10137000F92809D80722C110104079320241974B51
:101380004944585C02435A5410239C46B444634673
:101390000493644500DB2AE109239C46B444634678
:1013A0000393504608F050FF009908F00AFF019996
:1013B00008F0F0FE08F0AAFF059B139F9C46011C55
:1013C0005846674408F0FDFE08F060FF3F18F92F0B
:1013D00009D80720802238400241804BF910494447
:1013E000585C02435A54371DBC4200DB2DE1731C8C
:1013F00006939C4200DB4CE1A64200DC69E1039BC2
:101400009C421FDB504608F01FFF009908F0D9FEF0
:10141000019908F0BFFE08F079FF011C584608F05A
:10142000D0FE08F033FF089B9C466044F92809D899
:101430000722C110104079320241684B4944585C80
:1014400002435A54049B9C421FDB504608F0FCFEAA
:10145000009908F0B6FE019908F09CFE08F056FFCE
:10146000011C584608F0ADFE08F010FF0E9B9C468C
:101470006044F92809D80722C1101040793202418E
:10148000564B4944585C02435A54029B9C421FDB12
:10149000504608F0D9FE009908F093FE019908F033
:1014A00079FE08F033FF011C584608F08AFE08F068
:1014B000EDFE0D9B9C466044F92809D80722C11017
:1014C000464B4944104080220241585C02435A5422
:1014D00001239C461F33E0449C460135E144062D20
:1014E00000D017E717B0F0BCBB46B246A946A046ED
:1014F000F0BD32001932944200DA52E1109BF92B10
:1015000000D817E23100103102918C4200DAE6E196
:10151000159BF92B00D95EE24346792B00D98DE269
:101520002E4B07201599CF100140793008414F44C8
:10153000D95D0843D85509239A46B244544500DB87
:1015400012E2301D844200DBB3E1771CBC4200DBB9
:101550003FE1A64200DCD7E1844200DA6CE1099B5E
:10156000F92B00D968E14346792B00D922E21B4BC5
:101570000727802009990F403841CE104E449F5DC7
:1015800038439855544500DB53E2029B9C4200DAF5
:1015900070E10E9BF92B00D96CE14346792B97D86B
:1015A0000E4B07260E990E40C81080213141484449
:1015B0001E5C31431954944200DA89E70D9AF92AE6
:1015C00000D863E184E7C0463C1E0020F4430020BD
:1015D000F8430020FC430020401E0020542F002030
:1015E00010239C46B44463460493644521DB504673
:1015F00008F02AFE009908F0E4FD019908F0CAFD00
:1016000008F084FE059B129F9C46011C58466744C7
:1016100008F0D7FD08F03AFE3F18F92F09D8072047
:10162000802238400241DA4BF9104944585C0243A9
:101630005A5409239C46B44463460393644500DB33
:10164000AFE6371DBC4200DAD1E6504608F0FCFD9B
:10165000009908F0B6FD019908F09CFD08F056FECF
:10166000011C584608F0ADFD08F010FE0B9B9C468F
:101670006044F92809D80722C1101040793202418C
:10168000C34B4944585C02435A54731C06939C4212
:101690001FDB504608F0D8FD009908F092FD019933
:1016A00008F078FD08F032FE011C584608F089FD6C
:1016B00008F0ECFD0F9B9C466044F92809D80722EE
:1016C000C110104079320241B14B4944585C024389
:1016D0005A54504608F0B8FD009908F072FD01997F
:1016E00008F058FD08F012FE011C584608F069FD8C
:1016F00008F0CCFD0C9B9C466044F92809D80722D1
:10170000C110104079320241A14B4944585C024358
:101710005A54069B9C421FDB504608F095FD0099E9
:1017200008F04FFD019908F035FD08F0EFFD011CB0
:10173000584608F046FD08F0A9FD0A9B9C46604407
:10174000F92809D80722C110104079320241904B84
:101750004944585C02435A54BC4200DA4FE65046B2
:1017600008F072FD009908F02CFD019908F012FDB7
:1017700008F0CCFD011C584608F023FD08F086FD5A
:10178000099B9C466044F92800D938E60722C1101D
:101790001040793202417E4B4944585C02435A540E
:1017A0002DE63100103102918C4200DAC3E6159B20
:1017B000F92B00D9BFE64346792B00D8B0E60923C0
:1017C0009A46B244544500DB3BE1301D844270DA56
:1017D000771C0F9BF92B00D996E04146792900D957
:1017E000D8E01900DB109C460726CC4431407936FE
:1017F0000E416146664B595C0E4361465E540C993E
:10180000F92900D888E0BC4200DAA5E60A9BF92B4A
:1018100000D9A1E64346792B00D9C5E007260A99ED
:101820005B4BCF10314079360E414F44D95D0E43AA
:10183000DE55844200DBEFE0544500DAA5E6089B64
:10184000F92B00D9A1E64346792B00D940E6504B4D
:101850000727802008990F403841CE104E449F5DE5
:101860000299384398558C4200DAA4E60E99F9297A
:1018700000D896E6944200DA2AE60D9BF92B00D9AF
:1018800026E64346792B00D922E6414B0D9A0720E4
:10189000D110494416E63100103102918C4200DB30
:1018A000A1E009239A46149BB244F92B00D88DE09D
:1018B000301D0B9BF92B00D947E64346792B1CD8EA
:1018C0000B990727CB104B449C46394079370F4181
:1018D00061462F4B595C0F4361465F5435E609233F
:1018E0009A46149BB244F92BE2D84346792B42D94D
:1018F000301D0B9BF92B00D927E6771CBC4200DA80
:1019000082E00F9BF92B45D90C9BF92B00D97AE784
:101910004346792B42D81E4B0C99CE104E44B44608
:101920000726314079360E416146595C0E436146C7
:101930005E5468E74346792BADD807271099144BBE
:101940000F40C8108021394148441F5C3943195465
:101950003100103102918C4263DB1599F92900D8CE
:10196000DFE509239A46B244149BF92B00D9E8E538
:101970004346792B2AD8064B07201499CF100140F3
:10198000793008414F44D95D0843D855D9E5C04660
:10199000542F00200C9BF92B00D934E7BC4237DBD5
:1019A0000A9BF92B00D9D7E5844229DB099BF92B47
:1019B00000D941E7544500DA5CE7089BF92B00D9D0
:1019C000E3E5029B9C4200DB54E781E5301D844245
:1019D00000DABAE58DE709239A46149BB244F92B45
:1019E000C6D9301D65E7159BF92B00D959E70923A6
:1019F0009A46149BB244F92B00D879E7301D58E77A
:101A0000544500DAC1E5D8E70C9BF92B00D9A3E5D2
:101A1000844200DA10E7C9E70999F92900D8A7E557
:101A20000AE709218A461499B244F929A4D9301D3C
:101A30003FE70899F92900D80AE7A6E509239A465D
:101A4000B244149BF92B00D9BFE6301D844200DB61
:101A50004FE7771CBDE6C046F0B5DE4657464E461A
:101A60004546E0B5EFB00AF051FAFA20800007F0E1
:101A7000BDFBDD49DD4ADE480AF06CFBFEF792FC57
:101A8000DC4C222520000DF0B1F85AAB1884042359
:101A90005AAA521913702326E01E0DF0A7F85AAB6C
:101AA00024219B1918700023D34C5AAA5218137082
:101AB000200025270DF09AF85AABDB191870E01CAE
:101AC0000DF094F826235AAAD2181070A01D0DF01C
:101AD0008DF827225AA914008A1810700CF0F2FF12
:101AE00062A80DF00BF84020002107F06BFB0023EB
:101AF0005AAA9219D3565AAA52195AAD2D1900242E
:101B00002C575AA92020095E1278029426245AAD37
:101B10002C19247852B264B20194EC192478B74895
:101B200064B200940AF016FB05F042FE002856D17C
:101B3000B34BD0261A00269362AB13CA13C303CA51
:101B400003C3984662AC243F360620CC280006F03A
:101B5000B9FC3B00AB40002201212800B36206F033
:101B600089FCA045F1D106230193013B0322022108
:101B70000093A448013B0AF0EDFA05F027FF06F0B8
:101B80000BF90CF083FF1F211A2006F059FC0022EC
:101B90001A20110006F06EFC1A20002106F07EFCCF
:101BA000E0229948D201036880251340974A042611
:101BB0001360012420220023954F6D005B003E60DE
:101BC00001682942FCD04168013A21400B43002AB8
:101BD000F4D1904A926A93420CD053400BE08E4865
:101BE0000AF030FA01206FB0F0BCBB46B246A946FD
:101BF000A046F0BD894B8A4A002013603E92FEF752
:101C000065FC002316930C9310939846854B1B900C
:101C10003F93854B3593854B0693854B3693854B88
:101C20003793854B4093854B4193854B0D93854B63
:101C30000993854B1393854B0E93854B0A93854BE4
:101C40000B93854B4293854B3893854B4393854B40
:101C50002A93854B4493854B4593854B1A93854B2B
:101C60004693854B2193854B2793854B3993854B21
:101C70004793854B4893854B4993854B4A93854BB6
:101C80004B93854B4C93854B4D93854B4E93854B96
:101C90004F93854B5093854B5193854B5293854B76
:101CA0003A93854B3B93854B2B93854B3C93854BCC
:101CB0003D93854B5393854B5493854B5593854B5F
:101CC0005693854B5793854B5893854B5993854B2A
:101CD0005A93854B5B93854B5C93854B5D93854B0A
:101CE0005E93854B2E93854B2F93854B3093854B7D
:101CF0003193854B3293854B3393854B3493109BB3
:101D0000013BDBB2359A0E2B02D83F9A9B00D2588A
:101D100003230C990B40D35C42462C93002A5ED1DE
:101D2000012B5AD0F4221D2400211201069808F03C
:101D3000E3FB60A80CF038FF5AAB1C570C212000C5
:101D400007F06EFE49B2002900D10C31379A0B2CF6
:101D500000DC369A5AAB9B7E04925AAA927F02917B
:101D600052B203925AAA1821525E5BB201925AAA49
:101D7000D27E4098013B52B29B00C3583021009262
:101D800062A8419A09F04EFF62A80DF00BF8FA2202
:101D900043001B185B00D31A00205A1C00DB5810AC
:101DA000FA2362AA0121FEF7C7FB00230D9A1360F4
:101DB000099A1360139A136000230E9A13600A9A0B
:101DC00013600B9A1360109B0F2B01D902F020FABD
:101DD000429A9B002593D3589F460029A2D0109881
:101DE000FEF774FB1B909DE7E4F200103703000040
:101DF000E8F2001033F3001038F3001044F3001041
:101E000014C3011090F3001000C0044000D004403F
:101E100000E004400040054070F30010EFBEADDE6E
:101E2000CC420020D8A401105CA50110542F002042
:101E3000CCF20010D0F2001060A50110D4F3001015
:101E40003C1E0020401E0020441E0020F4430020C1
:101E5000F8430020FC430020D8A201102CA7011059
:101E600018A3011014A5011058A301105CA90110BA
:101E70001CA90110ECF3001094420020A81F0020C0
:101E8000D4F20010F4F300102CF4001034F400101D
:101E90004CF4001054F400106CF4001070F40010B6
:101EA00090F4001098F40010B4F40010BCF400108A
:101EB000A0A30110D8F20010DCF20010DCF4001036
:101EC000E0F20010C07E0110E4F40010ECF4001009
:101ED000F4F40010FCF4001004F500100CF50010F0
:101EE00014F500101CF5001024F500102CF500105E
:101EF00034F500103CF5001044F500104CF50010CE
:101F000054F500105CF5001064F500106CF500103D
:101F100074F5001001230226099A76421360139B80
:101F20001E600023984699460793012308930023D7
:101F30009A4601220A210F9211910899389A0F9D11
:101F40000C311623B3461791971C002D65D0119BB9
:101F5000179C9C466444630100214846129308F094
:101F60005FF9002876D1792C6ED80023149353465C
:101F7000013315935B463E00BB461F0034787578ED
:101F8000E41BE343ED19DB171C40F92D00DDF925B7
:101F9000AC4227DC159B11989C46654408F054F927
:101FA000079908F00EF9414608F0F4F808F0AEF988
:101FB0004946544408F005F908F068F92318F92B4C
:101FC0000DD81299DA108C4607210B40793119414E
:101FD0000B0006996244895C0B4306998B540134CB
:101FE000A542EBD1149B0F9A0133149302369A4207
:101FF000C4DC3B005F469B4613005A00013B5B007C
:10200000BA18FB189B781193FF2B0AD05378971CB2
:102010000F930F9D9378002D99D13A001193FF2BC8
:10202000F4D1102219211620FEF71EFD10221921CD
:102030003020FEF719FD109B0F2B01D904F0D8FAC0
:10204000439B259A9B589F466B1E6A005B00BA18FB
:10205000FB18D7E7012353449C465B463800BB4638
:1020600000261F0001784578C91BCB43ED19DB170B
:102070001940F92D00DDF92553466246CB18521957
:10208000A94220DCF92B1BD8792C19D86146119074
:102090001491129980208C46072119400841DD10C7
:1020A000069965441591495D01330843010015986F
:1020B0004155934211D0FA2BEBD1149911988C46CB
:1020C00001339A42DED10F9B01360230B342C9DCA4
:1020D0003B005F469B460F9B8FE7149B11989C46E5
:1020E0000F9B01360230B342BCDCF1E70C9808F0DC
:1020F000A5F8FC218905041C08F063F808F006F92E
:10210000011C08F047F808F0C1F80D9B82461860E2
:102110008749201C08F055F808F0F8F808F0B6F8E0
:10212000099B00261860002308909846994607935B
:10213000FFE60023984619339946043B9A46182532
:1021400016261724474620001921FEF74BFC3000C5
:102150001A21FEF747FC20001A21FEF743FC280055
:102160001A21FEF73FFC50461B21FEF73BFC3000D6
:102170001B21FEF737FC20001B21FEF733FC280053
:102180001B21FEF72FFC48461B21FEF72BFC3000DD
:102190001C21FEF727FC20001C21FEF723FC280051
:1021A0001C21FEF71FFC20001D21FEF71BFC2F2326
:1021B0009A4604333124302632259946012F00D126
:1021C0008AE00127BFE7269B62AA243313CB13C200
:1021D0001B68136062AB1E00356874682800A11E7E
:1021E000FEF700FC6B1E9946631E98461900484690
:1021F000FEF7F8FB6F1C41462800FEF7F3FB414653
:102200003800FEF7EFFB2100A81EFEF7EBFB2100D4
:102210004846FEF7E7FB21002800FEF7E3FB21001C
:102220003800FEF7DFFB2100A81CFEF7DBFB631C78
:10223000984619004846FEF7D5FB41462800FEF7B0
:10224000D1FB41463800FEF7CDFB2800A11CFEF76C
:10225000C9FB083666ABB342BED12C9B112B01D90A
:1022600005F0BAF9449A9B00D3589F4600239A463A
:1022700017339846023B9946043316259B464E4633
:102280004746EB1C99465B465B1B9846AC1E2000FC
:102290001921FEF7A7FB4346280019190134FEF760
:1022A000A1FBA145F3D130001821FEF79BFB3800BC
:1022B0001821FEF797FB30001A21FEF793FB380038
:1022C0001A21FEF78FFB534630252F263127012B8D
:1022D000C3D001239A46D4E71F211620FEF782FBC4
:1022E00020211620FEF77EFB21211620FEF77AFB27
:1022F00020211520FEF776FB20211720FEF772FB28
:102300001F213020FEF76EFB20213020FEF76AFBF4
:1023100021213020FEF766FB20212F20FEF762FBF3
:1023200020213120FEF75EFB97E700201C2411E0FE
:102330009A99993E20001B3807F086FFE54907F07F
:102340002CFFE54907F03DFFE44907F03AFF07F0AD
:10235000DDFF2C00FF21890507F033FF07F096FF12
:102360000100050028312000FEF73CFB2900200079
:102370002931FEF737FB651C2A2CDBD14E210726BD
:10238000802506988823CA109B00D71833002C009C
:102390000B401C41E3B2C45D01311C43C455902481
:1023A000A4001719C45D1C43C455AC24240117199B
:1023B000C45D1C43C455AA242401A4466244845C21
:1023C00023438354F229DDD1069AC54913008C4674
:1023D000C44963448C466244100018211A780A43A9
:1023E0001A705A7D0A435A7520339842F6D1042256
:1023F0000E20069EBC497025735CBC4C134373547D
:10240000BB49735C03437354B549735C1343735402
:102410002023315D19433155B64C315D2943315587
:10242000B54C315D19433155B44C315D11433155D3
:10243000AC4C315D01433155B149705C0243102011
:102440007254B049725C1A437254AF49725C2A43A9
:102450007254AE49725C1A437254AD49725C0243C5
:102460007254AC495120725C134373544021AA4A00
:10247000B35C0B43B3548023A84A5B42B15C0B436B
:102480000721B3549F32B35C0B43B354203AB15A83
:10249000A34B0B43B352203AB15AA24B0B43B35256
:1024A000203AB15AA04B0B43B352203AB15A9F4B3A
:1024B0000B43B3521B9B459ADB00D3581721984618
:1024C0009E234246FEF738F81A9B259A20219D58F4
:1024D00062A82B00469A09F0A5FB62A80CF062FCEA
:1024E00043001B18FA205B00C01A7221FA23401027
:1024F00062AAFEF721F8219B1B78002B00D0EEE1A9
:10250000FA22279F1201FF21380007F0F5FF072369
:102510009C46069B00220126A9469A466346310046
:1025200093439940CB43F92109018B460021DCB24A
:10253000D31055015B44FB18554407946446C810FA
:10254000285C8C432041064203D01878079C204029
:1025500018700131103BFA29F0D101327A2ADDD10D
:102560000C9B4D462798002B57D105F081FC2198F4
:10257000109B0178399A0133002900D002004146AE
:10258000019210220C9C0291009221002A0047988F
:1025900009F0E0FD230001330C930023994698468F
:1025A0003E9B109E9B46219D06F0CAFE002900D14D
:1025B000DAE0FA220023920007F098FA0700169B4F
:1025C000FB1AC72B00D8D9E0D0231B065A68D206C5
:1025D00000D5DAE0002E00D1D4E0741EE4B223006E
:1025E00048999B000A682A600A792A711A9A4998C0
:1025F000D15809F0AFFD01239A46984616974C48EA
:1026000009F088FC831C1FD003002C3B4D2B00D904
:10261000A0E0529A9B00D3589F4605F0A3FCA6E782
:102620000124559A13682B609388AB8001239A4646
:10263000B44209D01A99A300B600CA5834988959EF
:1026400009F088FD0123984632239C46FA23E14491
:102650001B01994500D27DE023001094FFF750FB49
:10266000569A022413682B609388AB80DEE75B9A4E
:10267000072413682B609388AB80D7E7589A04240B
:1026800013682B609388AB80D0E75B461A680F24F1
:10269000530353405A0C5A40530153405A46136057
:1026A000539A1C4013682B609388AB80BEE72000D0
:1026B000FDF70CFF339A1B9013682B609388AB8057
:1026C00001239846B2E75C9A082413682B6093882C
:1026D000AB80ABE700006041D00F494000004040B4
:1026E00089020000890A0000490200005E02000021
:1026F000690200007E0200009E020000690A0000DC
:10270000A90A00007E0A00009E0A0000BE0A00001E
:10271000E90500000906000029060000490600003E
:102720000880FFFF044000000220000001100000AC
:1027300050C30000319A0E2413682B609388AB803D
:1027400074E72F9A0C2413682B609388AB806DE795
:10275000FDF728FE5346002B00D07DE7260006F04B
:10276000EFFD002900D024E7FA21890007F080F965
:102770000700169BFB1AC72B00D925E7002334005E
:102780009A463CE70F230F242AE75A6892064BD556
:102790005A68520732D55A68120754D500225B682E
:1027A000340092465B0600D529E7D24B50995198E8
:1027B0002B6009F0CFFC012300249A469846169717
:1027C0001DE7579A032413682B609388AB802DE78D
:1027D0000F2301341C403D9B5D2800D13C9B0C2104
:1027E00028002B9A09F01EFA20E7002C3DD0013C6E
:1027F000E4B23B9B5B28F2D13A9BF0E75B461A6858
:102800000F24530353405A0C5A40530153405A4625
:1028100013604C9A1C4013882B809378AB701A9AE3
:10282000A300D1584D98E4E60F2422004A99731C66
:102830001A400B6814002B608B889200AB801A9BA7
:102840004B989958D5E63000FDF740FE4E9A1B9004
:10285000136834002B6013792B714F9809F0F2FB49
:10286000012316979A469846C9E60F24C1E7549A61
:10287000002413682B609388AB80D7E6329A0F242C
:1028800013682B609388AB80D0E65D9A09241368A7
:102890002B609388AB80C9E62E9A0B2413682B60BB
:1028A0009388AB80C2E65A9A062413682B609388FB
:1028B000AB80BBE65E9A0A2413682B609388AB80DA
:1028C000B4E6309A0D2413682B609388AB80ADE694
:1028D000599A052413682B609388AB80A6E6219C47
:1028E00020000CF05FFA43001B18F8205B00C01AB0
:1028F0002200FA237221FDF71FFE01E61F252800A2
:102900001F3807F0A1FCF821890507F05AFC011CCB
:1029100007F040FCFE21890507F039FCFF21041C6B
:10292000890507F04EFC211C07F04BFC07F0AEFCBC
:102930000100040028312800FEF754F82100280087
:1029400029310135FEF74EF8282DD8D116E5162489
:10295000200023380C21404307F062F801000500F5
:1029600025312000FEF73EF82900200026310134F1
:10297000FEF738F8312CEBD100E5C822D200002355
:102980009346002B00D1B7E05C1C22006243920109
:10299000904627221F0091461B259A465E1E5F43E4
:1029A0007643BF01B601994408942A00233A524362
:1029B00093009B189A009B18FA185A451DDC2900B1
:1029C000243949438A00521891005218D2195A45A5
:1029D0005BDC2900223949438A00521891005218C1
:1029E000D2195A4551DC9A195A454EDC43445B458D
:1029F0004BDC49462800FDF793FC01352C2DD4D142
:102A0000089C2300062CBCD12D212120FDF7EAFFD4
:102A10002D212220FDF7E6FF2D212320FDF7E2FFE7
:102A20002D212420FDF7DEFF2D212520FDF7DAFFE3
:102A30002E212120FDF7D6FF2E212220FDF7D2FFE7
:102A40002E212320FDF7CEFF2E212420FDF7CAFFE3
:102A50002E212520FDF7C6FF2E212220FDF760FC48
:102A60002E212320FDF75CFC2E212420FDF758FCAD
:102A70002F212220FDF754FC2F212320FDF750FCAD
:102A80002F212420FDF74CFC78E40D9B00211C68CD
:102A90000E9B2C191B68181C079307F0C1FB00281C
:102AA00012D1484607F0D0FB0A9B196807F089FB52
:102AB0000B9B196807F06EFB07F028FC079907F0DD
:102AC00080FB07F0E3FB2418099B1A68F92C94D8C3
:102AD000534633339B18792B8FD8E2105B01D21801
:102AE00007231C40793323410698815C0B438354B0
:102AF00083E7C0464354520008250D9B6D421B6876
:102B00009A460E9B1F680A9B1B6899460B9B1B6885
:102B10009846099B1E683336730107932C000021E9
:102B20002334381C544407F07BFB00280FD197490D
:102B3000484607F046FB414607F02CFB07F0E6FB52
:102B4000011C381C07F03DFB07F0A0FB2418F92CF2
:102B50000DD8792E0BD8079AE3109446072214401B
:102B60007932224106986344C15C0A43C25401355C
:102B7000092DD3D1012307E71D2528001D3807F0B3
:102B800063FB834907F009FBFF21041C890507F05B
:102B900018FB211C07F015FB07F078FB010004006F
:102BA00028312800FDF71EFF2100280029310135BA
:102BB000FDF718FF2C2DE0D1FFF7E0FB18242000D3
:102BC00023381221404306F02BFF01000500263177
:102BD0002000FDF707FF2900200027310134FDF711
:102BE00001FF2F2CEBD1269B62AA343313CB13C2E7
:102BF0001B68136062AB1E00356874682800A11E54
:102C0000FDF7F0FE6B1E9946631E98461900484674
:102C1000FDF7E8FE6F1C41462800FDF7E3FE414644
:102C20003800FDF7DFFE2100A81EFDF7DBFE2100C6
:102C30004846FDF7D7FE21002800FDF7D3FE21000E
:102C40003800FDF7CFFE2100A81CFDF7CBFE631C6A
:102C5000984619004846FDF7C5FE41462800FDF795
:102C6000C1FE41463800FDF7BDFE2800A11CFDF75E
:102C7000B9FE083666ABB342BED1FFF77FFB1D2419
:102C800020002821FDF7AEFE200029210134FDF7A8
:102C9000A9FE2A2CF4D1FFF771FB002316241E1C79
:102CA00011E02000153807F0CFFA3A4907F075FA1D
:102CB000394907F086FA8121C90507F082FA07F041
:102CC00025FB2C00061C200023381421404306F06D
:102CD000A7FEFF21263089050500301C07F071FA98
:102CE00007F0D4FA2D1829002000FDF77BFE691C9F
:102CF0002000FDF777FE651C302CD2D1FFF73EFB9C
:102D00002E218B460E9A0D9B12681B6807920A9A19
:102D1000069D126808920B9A12680F92099A12681F
:102D200093445A46520191461F2294469C4462465F
:102D30001D92202294469C4462461792212294467A
:102D40009C4462461892222294469C446246129207
:102D5000232294469C4462461192242294469C4429
:102D600062461492252294469C446246159226227D
:102D700094469C4427331993222398469023624615
:102D80009B009A464E465F461C9268E000001C423B
:102D9000000060410000D041D00F4940792F56D843
:102DA00090239B009C46A44463461E93534500DC3D
:102DB00032E1A2235B009946A144D14500DC4FE1FA
:102DC00090239B46A344D34500DC6CE12434544556
:102DD00000DC89E1404607F037FA089907F0F1F97D
:102DE0000F9907F0D7F907F091FA011C079807F03F
:102DF000E8F907F04BFA119A03001018F92809D8DE
:102E00000721C21001408120404208419219A95C6B
:102E10000140A95454450DDC149A94466344F92B9F
:102E200008D80721DA100B40883919419219AB5C98
:102E30000B40AB54D34501DC00F00AFFD14501DC67
:102E400000F0C2FE1E9B534501DC00F0E3FE0123AF
:102E50009C46E0444346013720362F2B62D044463F
:102E6000283C644300210798240107F0D9F9002881
:102E700094D090239B009B46A344D34501DC00F0F3
:102E80007AFF22004532FF32524501DC00F079FF23
:102E900023009033534501DC00F047FF24345445B0
:102EA00001DC00F0F0FD1199F92921D8792F1BD808
:102EB0001199C81080191E900720084081214942AD
:102EC00001411E988946295C8C464946604601406E
:102ED0001E98295490208000844201DC00F0F0FD0F
:102EE000834201DC00F001FE524501DC00F067FF87
:102EF000D345ACDC199BF92BA9D8792FA7D8072289
:102F00001999CB109B190A40812149421141EA5C71
:102F100001370A40EA5401239C46E04443462036E8
:102F20002F2B9CD108235B42984629339946283B96
:102F30009A46D74B55469B464C461BE05A4500DC0B
:102F4000C4E1089B5B4500DC4DE1D24B9A4500DCB7
:102F50000AE19323DB009A4500DCE7E0210023200F
:102F6000FDF740FD01239C460134E044082D01D1CA
:102F7000FFF704FA2A006A4393009B189A469A00C6
:102F80009244C42252440792BA22FF325244089219
:102F9000C422BF4B920053445244129301350F9206
:102FA0005B45CBDC47467F43BB4BB9469A4500DBCC
:102FB000A6E1002F00D0A3E12E006E43002E00DC1E
:102FC00029E121001E20FDF70DFDB3009B199A0099
:102FD0009B18DD225200934200DA1CE121001F20E1
:102FE000FDF700FDB3009B199A009B18C4229200C4
:102FF000934200DC0FE121002020FDF7F3FCB30039
:103000009B199A009B18A34A934200DC03E121001C
:103010002120FDF7E7FC43E1404607F015F9089948
:1030200007F0CFF80F9907F0B5F807F06FF9011C1A
:10303000079807F0C6F807F029F91D9B9C466044E5
:10304000F92809D807228121024049421141C310C1
:103050009B19EA5C0A40EA54A2235B009946A1440A
:10306000404607F0F1F8089907F0ABF80F9907F020
:1030700091F807F04BF9011C079807F0A2F807F048
:1030800005F9179B9C466044F92809D8072281213D
:10309000024049421141C3109B19EA5C0A40EA54BC
:1030A00090239B46A344404607F0CEF8089907F0CA
:1030B00088F80F9907F06EF807F028F9011C0798B7
:1030C00007F07FF807F0E2F8189B9C466044F92867
:1030D00009D807228121024049421141C3109B199E
:1030E000EA5C0A40EA542434404607F0ADF80899F7
:1030F00007F067F80F9907F04DF807F007F9011C82
:10310000079807F05EF807F0C1F8129B9C466044F0
:10311000F92800D95EE60722812102404942114187
:10312000C3109B19EA5C0A40EA5453E647467F43C2
:10313000BB00DB1999469A00914421002220FDF73B
:1031400051FCD94501DD04F041FA2E006E43B30075
:103150009B199A009B185B4501DD04F01CFA2100C5
:103160002420FDF73FFCFDE647467F43BB00DB190B
:1031700099469A00914421002120FDF733FC9323C6
:10318000DB00994500DC89E021002220FDF72AFCC4
:103190003F4B994501DC04F080FA21002320FDF724
:1031A00021FC079B3A4A9342D9DC21002420FDF7F9
:1031B00019FC089B364A934200DDD3E0210025200C
:1031C000FDF710FC324B0F9A9A4200DDCFE0210050
:1031D0002620FDF707FC129B5B4537DD21002720E9
:1031E000FDF700FCBEE647467F43BB00DB1999466E
:1031F0009A00914421002020FDF7F4FB254B9945CE
:10320000B9DC2E006E43B3009B199A009B18214A2B
:10321000934200DDFBE6079B5B45A0DC089B5B451A
:1032200000DD9FE0B3009B199A009B18194A934256
:10323000C4DC0F9A5A4500DD99E0C4229200914502
:10324000C5DC9342C3DC129B5B45C7DCDD21BB00C0
:10325000DB199A009B1849008B4200DB8CE02A00A6
:103260006A4393009B189A009B188B4200DB83E013
:10327000094B9A4506DA002F04DC2B006B43002B28
:1032800000DC6FE621002820FDF7ACFB6AE6C046B3
:10329000C904000005040000E6FDFFFF2E006E4398
:1032A000B3009B199A009B1893221193D20093426A
:1032B0003DDCBA4B079A9A4200DD50E7B74B089ABB
:1032C0009A424FDCB64B9945ACDD77E747467F43E2
:1032D000BB00DB1999469A00914421001F20FDF79D
:1032E00081FBC4239B00994584DC2E006E43B30010
:1032F0009B199A009B18C422920093428BDD7AE6B8
:1033000021001E20FDF76EFBBB00DB1999469A00D9
:103310009144DD2252009145DFDA2E006E43B30066
:103320009B1999005B18934200DA74E756E6210076
:103330002220FDF757FB994B119A9A4201DD04F0C8
:103340002AF9079A9A4200DD09E79322119BD200DD
:103350009342B3DD21002420FDF744FB8F4B089AF4
:103360009A42AFDD21002520FDF73CFBFAE5210064
:103370002620FDF737FBF5E521002720FDF732FB7E
:1033800076E7302292460E9B143A1B6894462893A7
:103390000A9BC4261B68069D2C930B9BB6001B68DA
:1033A0002D93099B1B689A4453465B019B460D9BDA
:1033B0005F461B689C44624629921D2294469C44A9
:1033C000624618921E2294469C44624619921F221D
:1033D00094469C4462461192202294469C44624644
:1033E0001292212294469C4462461C9222229446C8
:1033F0009C4462462392232294469C44624608924F
:10340000242294469C4462461D92252294469C4464
:1034100062461E92262294469C4462461F922722B0
:1034200094469C4462461492282294469C446246E8
:103430001592292294469C442A3320930423624601
:103440005B4224921793179B00211A005A43D30022
:103450009B1ADC002898E41A06F0E2FE002800D04F
:10346000A0E05346792B37D8072328225B429446A5
:103470009846179B634499464346A0461C0002E0C9
:103480000134082C28D0230063431B014344B3427A
:10349000F6DC484606F0D8FE2C9906F092FE2D99EF
:1034A00006F078FE06F032FF011C289806F089FE2F
:1034B00006F0ECFE089BE318C018F928E0D80722B4
:1034C0008121C310494210400141DB19EA5C0134FB
:1034D0000A40EA54082CD6D101229446179BE244B4
:1034E000013317932037052BADD1C8230524DB000A
:1034F0009A46644227000825631C661E99465B4372
:10350000674376439B019846BF01B6016D4228345C
:1035100001E0092D28D02A006A4393009B189A00E5
:103520009B18DA19280001355245F2DC411E494347
:103530008A00521891005218D21952450EDC290007
:1035400069438A00521891005218D219524505DC7D
:103550009A19524502DC43445345DADD21002330F9
:10356000FDF740FA092DD6D14C46062CC2D12E24A7
:10357000210021200134FDF735FA332CF8D12F2119
:103580002520FDF72FFA30212520FDF72BFA3121D8
:103590002520FDF727FAFEF7F1FEC046C90400001A
:1035A00005040000C4239B009C46A4446346229368
:1035B000B34268DD90239B00E3180F93B3426ADDAA
:1035C00023009133FF33B34200DCDEE1621CFF32A3
:1035D000B2427CDD210090310791B14200DCF1E183
:1035E00040218C46A444B44500DC95E01034B4423C
:1035F00000DCACE00899F9291FD85146792900D997
:103600001AE10899C81080460720084081214942E4
:103610000141B8448B464146695C89465946484653
:1036200001408946414648466854C42189008C427D
:1036300000DCEDE0B44500DCF9E10799B14200DCC3
:103640006FE1B24200DC51E1B34200DC2FE10F9B9D
:10365000B34200DC0DE1229BB34200DD3CE7209B3E
:10366000F92B00D938E75346792B00D934E70722E4
:1036700020990A40CB10812149421141DB19EA5CB3
:103680000A40EA5428E7299BF92B00D864E19023EB
:103690009B00E3180F93189BF92B00D972E1534656
:1036A000792B00D9B5E1072218990A40CB10812166
:1036B00049421141DB19EA5C0A40EA542300199A95
:1036C0009133FF33F92A00D867E1621CFF32119968
:1036D000F92900D973E15146792959D81198C110B7
:1036E0008946072101408C468121604649420141BB
:1036F000B94488464946695C8C464146604601406B
:10370000484629542100903107911299F92900D88F
:1037100060E140218C46A4441C99F92916D85146F1
:10372000792941D81C99C81080460720084081217A
:1037300049420141B8448B464146695C8946594635
:10374000484601408946414648466854103423990A
:10375000F92934D8514679292AD82399C8108046A6
:1037600007200840812149420141B8448B46414627
:10377000695C894659464846014089464146484663
:1037800068540899FA2900D03BE753E7621CFF32DE
:103790002100903107911299F929BAD840218C461D
:1037A0001C99A444F929D1D823991034F92906D8B1
:1037B0000899F92907D81D99F9290BD93AE70899E9
:1037C000F92900D819E71D99F92900D932E751469E
:1037D000792921D9C424A400A44534DD0799A14244
:1037E00000DD2EE71F99F92900D92AE7C4218900B5
:1037F0008A4234DD8B4200DD29E7159BF92B00D985
:1038000025E7C4230F9A9B009A4200DD64E622E775
:103810001D99F92900D90DE707201D990840CC1002
:10382000812149420141E4198946295D884649467A
:10383000404601402955FDE6C42189008C42BADD8D
:103840008C4500DDF9E61E99F92900D9F5E6C42476
:103850000799A400A142C5DDA24200DDF4E6149A56
:10386000F92A00D9F0E6C4229200934200DDF2E684
:10387000C3E7249BF92B00D9EDE65346792B00D9F9
:103880002AE6072224990A40CB108121494211419E
:10389000DB19EA5C0A40EA54C423229A9B009A424C
:1038A00000DD19E6209BF92B00D8E0E614E6159B15
:1038B000F92B00D9CBE65346792B00D90CE6072229
:1038C00015990A40CB10812149421141DB19EA5C6C
:1038D0000A40EA54C4230F9A9B009A4201DC03F089
:1038E00053FE229A9A4200DDF6E5DBE7149AF92AA4
:1038F00000D9A9E65246792AB5D80721812414981F
:10390000644201400C41C210D219A95C2140A95463
:10391000C4229200934200DD99E6159BF92BCED983
:1039200095E61F99F92900D98BE65146792900D9E6
:103930005CE707241F98C1102040883C0441A4463E
:103940006046C9196C5C04406C54B24200DD7BE6F1
:10395000149AFA2AD1D177E65346792B7FD80722D9
:1039600029990A40CB10812149421141DB19EA5CB7
:103970000A40EA5490239B00E3180F93189BFA2BFC
:1039800000D090E623009133FF33199AF92A00D929
:103990009BE65246792A00D9F8E607211998C21009
:1039A0000840883901418C466046D219A95C014023
:1039B000A9541199621CFF32F92900D88EE6210022
:1039C000903107911299F92900D9A2E65146792937
:1039D00000D9E3E61298C1108C46072101408846C1
:1039E0008121404649420141BC4489466146695CA7
:1039F00088464946404601408846614640466854EC
:103A000040218C461C99A444F92900D88AE6103438
:103A10009DE62300199A9133FF33F92A00D8B5E6C1
:103A20001199621CFF32F92900D8B1E6C7E71E9947
:103A3000F92900D901E65146792900D907E707207D
:103A40001E990840CC10812149420141E419884661
:103A5000295D8C464146604601402955EDE590239D
:103A60009B00E3180F93189BFA2BD2D123009133BC
:103A7000FF332AE62200179B4532FF32FA2B54D13E
:103A80002300903324341299F92900D96BE1792F5E
:103A900055D81299C81080191E900720084081211E
:103AA000494201411E988946295C8C464946604638
:103AB00001401E9829541199F92901D8FFF7F8F906
:103AC0001499F92943D807241499C8102140883C37
:103AD0000C41A446614680192C5C0C402C5490206B
:103AE0008000834201DDFFF7FFF9159BF92B01D917
:103AF000FFF7FAF907208124159964420840044130
:103B0000CB109B19E85C2040E85490239B009A421C
:103B100000DC4FE19B4501DDFFF799F9199BF92B7B
:103B200001D8FFF7ECF9FFF792F9230018999033C9
:103B3000F92904D912992434F92900D913E11199EA
:103B4000F92900D9C3E01499F92900D8C6E05345F2
:103B500001DDFFF7C9F9159BF92B01D9FFF7C4F96E
:103B6000792FC7D9FFF773F91A2420001E212338B3
:103B70004942404305F054FF010005002A3120006E
:103B8000FCF730FF290020002B310134FCF72AFF1D
:103B90002D2CEAD1FEF7F2FB1C242000142123383F
:103BA0004942404305F03CFF010005002831200058
:103BB000FCF718FF2900200029310134FCF712FF1F
:103BC0002B2CEAD1FEF7DAFB404606F03DFB0899C4
:103BD00006F0F7FA0F9906F0DDFA06F097FB079961
:103BE00006F0EFFA06F052FB1C9B9C466044F92855
:103BF00001D9FFF727F907228121024049421141EB
:103C0000C3109B19EA5C0A40EA541E9B534501DD30
:103C1000FFF71DF9404606F017FB089906F0D1FAA8
:103C20000F9906F0B7FA06F071FB011C079806F031
:103C3000C8FA06F02BFB199B9C466044F92801D971
:103C4000FFF705F90722C3109B190240FFF75CF943
:103C5000404606F0F9FA089906F0B3FA0F9906F013
:103C600099FA06F053FB011C079806F0AAFA06F031
:103C70000DFB159B9C466044F92801D9FFF7DEF83F
:103C800007228121024049421141C3109B19EA5C7D
:103C90000A40EA54FFF7D2F8182519260EE013312E
:103CA0004C0028002100FCF79DFE2800611C013516
:103CB000FCF798FE302D01D1FEF760FB28000621AD
:103CC000183805F0ADFE0229E9DD711AE8E714990C
:103CD000F92900D93BE7792F00D8F4E6902080003D
:103CE000834201DDFFF704F9159BF92B01D9FFF79A
:103CF000FBF8824201DDFFF7AAF8FFF7F9F8792F08
:103D000000D9B7E61900072281200A40404210413D
:103D1000DB109B19EA5C0240EA542200179B4532F3
:103D2000FF32FA2B33D1230090331899F92900D9A7
:103D3000A8E6792F00D902E718992434C810801911
:103D40001E90072008408121494201411E98894662
:103D5000295C8C464946604601401E9829541299B8
:103D6000F92900D895E61199F929B0D8792F01D809
:103D7000FFF79EF8E7E61D9BF92BC0D922004532DC
:103D8000FF32179BF92BCED8792F00D9CDE607202B
:103D90001799CB10014088380841844661469B1929
:103DA000E85C0840E854230018999033F929C3D9F6
:103DB000243468E61C9BF92B0AD9FFF799F81C9B61
:103DC000F92B01D9FFF794F8792F01D9FFF73FF8C4
:103DD000072281201C9940420A401041CB109B19B8
:103DE000EA5C0240EA5490239B009B4501DDFFF70B
:103DF0002EF893E60D9B1B689B460E9B1B68079352
:103E00000A9B1B6808930B9B1B680F93099B1E68FA
:103E10002F367301994623239846E04B47469A462E
:103E20002323B0464E465B4411933B00293B5B4342
:103E3000DC00E418E30000210798E41806F0F0F92C
:103E4000002800D092E04346792B31D809256D42F5
:103E500002E001350A2D2BD02A006A43D3009B18BB
:103E60009B001B195345F4DC380006F0EDF9089966
:103E700006F0A7F90F9906F08DF906F047FA011C34
:103E8000079806F09EF906F001FA119B5B19C0181D
:103E9000F928DED807228121C31049421040014190
:103EA00006989B19C25C01350A40C2540A2DD3D131
:103EB00001239C460137E0442036302FB5D16333CF
:103EC0009B46B74B07249A46644227005B465A46F6
:103ED0000A25661E674376435F435E43631C99462B
:103EE0005B435A436D429046293401E00B2D28D0A4
:103EF0002B006B43DA00D21AD3009B1ADA19280080
:103F000001355245F2DC421E5243D100891ACA00E3
:103F1000521AD21952450EDC2A006A43D100891A7E
:103F2000CA00521AD219524505DC9A19524502DCD0
:103F300043445345DADD21002330FCF753FD0B2DBC
:103F4000D6D14C46082CC0D11C2420002421FCF7DB
:103F500049FD20002521FCF745FD601C2521033487
:103F6000FCF740FD2B2CF0D1FEF708FA5946092248
:103F70001A31524203E0013201310A2A98D010006E
:103F80005043C3001B189B001B195345F3DCF92950
:103F9000F1D84346792BEED80720812508406D42A1
:103FA0000541CB1006989B19C05C2840069DE8543B
:103FB000E1E70C9806F042F97A4906F002F906F0BA
:103FC000A5F9784906F0FDF806F060F9099B08901C
:103FD00018600023984699460793002300269A46C6
:103FE000FDF7A7FF0C9806F029F9011C06F0D2F89E
:103FF00006F08CF9011C06F0CDF806F047F9139B8A
:1040000006001860002398469946079300239A46B5
:104010000893FDF78EFF0C9806F010F9624906F040
:10402000D0F806F073F906F031F90D9B099A186083
:104030000123136000239846994607930123824683
:1040400000260893FDF775FF0323139A0C9813605D
:1040500006F0F4F8554906F0B4F806F057F906F002
:1040600015F9099B03261860002398469946079383
:10407000002308909A46FDF75CFF0323099A032664
:104080001360139A136000239846994607930323FD
:10409000089300239A46FDF74CFF0C9806F0CEF8E3
:1040A000434906F08EF8804606F030F93D4906F0A7
:1040B00088F806F0EBF80D9B8246186080230E9A74
:1040C000DB0513603B4A4046994600230A990026C7
:1040D0000A600B99079208600893FDF72AFF0C9875
:1040E00006F0ACF8FC21890506F06BF806F00EF935
:1040F00006F0CCF80126099A831C08931360139BE1
:1041000076421E60002398469946079300239A46FC
:10411000FDF70FFF0C9806F091F8FF21890506F0D6
:1041200050F806F0F3F806F0B1F8099A831E0893E8
:1041300013604EE70C9806F081F81F49051C06F045
:1041400040F806F0E3F8011C06F024F806F09EF8AB
:104150000D9B1A4918608246281C06F032F806F0BA
:10416000D5F8011C06F016F806F090F8FA24099B21
:104170000C4A18600E9BA4051A600A9B08901C60EC
:10418000291C281C06F006F80B9B80461860054B7E
:10419000002699460794FDF7CCFEC046640B00004C
:1041A0002413000000004040CDCCCC3E6666E63FC4
:1041B0009A99993FCDCCCC3D666606409A99D93FF5
:1041C00003230126099A76421360139B1E60002385
:1041D0009846994607930323089300239A46FDF7D0
:1041E000A8FE0C9806F02AF8D049804605F0E9FFB1
:1041F00006F08CF8CE4905F0E4FF06F047F80D9B79
:104200000E9A1860FF239B0513608246C94A5AE73D
:104210009B0025930C9806F011F8C44905F0D1FFD6
:1042200006F074F8D0E60126099B76421E60022350
:10423000FC25139AAD0513600E9BBF4C1D600A9BB5
:104240000C981C6005F0FAFFBC4905F0BAFF0B9B07
:104250000896186000238046A9469A4607940336BC
:10426000FDF767FE0C9805F0E9FFB549041C05F061
:10427000A8FF06F04BF8FF21890505F0A2FF06F024
:1042800005F80D9B82461860AE49201C05F099FF89
:10429000FE21890505F07EFF06F038F8FF2189052B
:1042A00005F08FFFFDF73AFF1524250020001B21A4
:1042B000FCF798FB1A3520001C21FCF793FB1B210F
:1042C0002800FCF78FFB01341C212800FCF78AFB37
:1042D000182CEAD1212292460D9B16261C680E9BB3
:1042E000069D1B6808930A9B1B680F930B9B1B681A
:1042F0009B46099B1B689A4453465B0199460023E1
:1043000012934B46D9469B4657461523D8460793EA
:104310001597079F0021193F08987F4305F080FFFC
:10432000002874D15346792B45D809239C46BC44B8
:1043300063461493102B00DC73E10C2F00DC3EE18C
:10434000142311271193079805F07EFF0F9905F0AC
:1043500038FF494605F01EFF05F0D8FF011C0898FC
:1043600005F02FFF05F092FF33191B18F92B08D821
:104370000721DA10194080230B414244A95C0B430A
:10438000AB54112F0DD0731C1B191B18F92B08D817
:104390000721DA10194080230B414244A95C0B43EA
:1043A000AB54119B102B01DC02F062FD149B102B0F
:1043B00001DC02F03FFD012320229C46E2449446AA
:1043C000079BE04401330793182BA2D1159B30269D
:1043D0009A46129B012B01D1FDF73FFF0123129357
:1043E00092E7042217211720FCF746FF0422172129
:1043F0003120FCF741FF012215211520FCF734FB89
:10440000012215212F20FCF72FFBFDF726FF0923A2
:104410009C46BC446346102B00DC95E00C2F56DD17
:104420003219F92AC7D85346792BC4D81423112737
:104430000720D1101040802202414144685C0243B1
:104440006A54112F22D0721C1219F92A35D807206C
:10445000D1101040802202414144685C02436A54FA
:10446000102B15DD6346102BA5DCF31C1B19F92B53
:10447000A1D85246792A9ED80721DA104244194021
:1044800080230B41A95C0B43AB5494E7102BE9DC70
:10449000B31C1B19F92BE5D80721DA10194080232A
:1044A0000B414244A95C0B43AB546346102B82DCA6
:1044B000F31C1B19F92BDFD97DE7102BD2DCB31CC1
:1044C0001B19F92BCED85246792AE5D973E70D236B
:1044D000B21E1219F92A4CD85146792951D8072011
:1044E000D1101040802202414144685C01370243F0
:1044F0006A54721E1219F92A55D80720D11010409B
:10450000802202414144685C02436A543219F92A0C
:104510008ED9721C1219F92AD1D85146792996D907
:10452000B31C1B19F92B00D845E79BE7CDCC4C3FBA
:10453000000040409A99193E9A99993ED00F4940FF
:104540009A99E9403333A340F31E1B19F92B34D851
:104550005246792A1DD80721DA10194080230B41D1
:104560004244A95C0B43AB54B21E12190823F92A2A
:10457000B5D9721E12190137F92A14D85146792972
:10458000BBD93219F92AC4D8731C1B19F92BC7D906
:1045900095E7B31E1B19F92B0DD9731E1B19F92BA7
:1045A00009D9082305273219F92AB2D851467929A1
:1045B00000D83DE7E8E70823E3E7082388E70D2371
:1045C0001193079805F040FE0F9905F0FAFD494652
:1045D00005F0E0FD05F09AFE011C089805F0F1FDDC
:1045E00005F054FEB31E1B191B18F92B08D8072120
:1045F000DA10194080230B414244A95C0B43AB54B1
:10460000731E1B191B180137F92B00D99BE60721D4
:10461000DA10194080230B414244A95C0B43AB5490
:1046200091E6079805F010FE0F9905F0CAFD49467E
:1046300005F0B0FD05F06AFEF31E1B19011C089879
:10464000119305F0BEFD05F021FE119B9C466044D0
:10465000F92808D80721802301400B41C2104244A9
:10466000A95C0B43AB5408231193AAE70A22002349
:10467000944698462A9B16246344994646462A9DAA
:104680000121002069562856193100190235FCF71E
:10469000A9F9A945F4D1A51EE71C28001921013567
:1046A000FCF7A0F9AF42F8D1601E1A21FCF79AF985
:1046B00020001A21FCF796F9601C1A21FCF792F9E8
:1046C00020001B21FCF78EF93024012E01D1FDF7CB
:1046D000C4FD0126D3E7269B62AA143313CB13C271
:1046E0001B68136062AB1E00356874682800A11E49
:1046F000FCF778F96B1E9946631E984619004846E8
:10470000FCF770F96F1C41462800FCF76BF9414635
:104710003800FCF767F92100A81EFCF763F92100B7
:104720004846FCF75FF921002800FCF75BF92100FF
:104730003800FCF757F92100A81CFCF753F9631C5B
:10474000984619004846FCF74DF941462800FCF709
:1047500049F941463800FCF745F92800A11CFCF74F
:1047600041F9083666ABB342BED1FDF776FD17209E
:10477000099B089E1B6823362D930D9B19901B687F
:1047800050460F930E9BC2461B681524119373016C
:104790002893002314221521C84624931A33089322
:1047A000023B2293023B1493069D0333179315900B
:1047B000023B159817008446614467442391634483
:1047C0000021404620971D9305F02AFD002800D0C7
:1047D000D7E1289B0F9A129303235B4294461E93C2
:1047E0002300634429935F9645E0231D9B46092BD4
:1047F00000DC9FE00A231C9303339B46484605F0E8
:1048000023FD47461D9B159C011C1F93079805F02F
:10481000D8FC514605F0BEFC05F078FD391C05F0CA
:10482000D0FC05F033FD1F9B9C466044F9280CD852
:10483000792E0AD8129B07219C46802301400B4108
:10484000C2106244A95C0B43AB541C9B0A2B00D0E2
:10485000ACE05B46092B00DC8FE1189B092B00D1F3
:104860000AE11E9B129A013320321E9301361292E6
:10487000042B00D16BE109221E9B94461C005C4373
:10488000A44462469C4618921A2262449146002C27
:10489000ABD1100005F0D8FC079905F092FC514609
:1048A00005F078FC05F032FD011C071C404605F0C0
:1048B00088FC05F0EBFC209B9C466044F9282AD933
:1048C000119B381C191C9B4605F07BFC05F0DEFC97
:1048D000299B07001B180F9CF92B00D8F7E2042333
:1048E00058469B46033B1C93149B00219C46644402
:1048F00005F096FC00284ED1E419F92C00D801E10E
:10490000484605F0A1FC0F9C199BA4466344119FE7
:10491000011C1F937AE7792E0AD8129B07219C4627
:10492000802301400B41C2106244A95C0B43AB548D
:1049300004239B46484605F087FC079905F041FC97
:10494000514605F027FC05F0E1FC011C404605F04E
:1049500038FC05F09BFC239B621C1B1807001C9273
:10496000F92B00D9EAE04046159C792E00D9D8E011
:104970001299DA108C460721194080230B416244BA
:10498000A95C0B43AB54149B00219C46644405F086
:1049900047FC0028B0D0F92C00D8B3E00F9C199840
:1049A000A4466044119FF92800D841E7229B0021CA
:1049B0009C46A44463461C93179B381C9B46A34407
:1049C0005B461F9305F02CFC002870D1484605F08B
:1049D0003BFC079905F0F5FB514605F0DBFB05F0C4
:1049E00095FC391C05F0EDFB05F050FC1C9B9C462A
:1049F000844463461C93F92B25D8792E13D8129939
:104A00001C9B8C460721DA10194080230B4162441D
:104A1000A95C0B43AB545B460021381C1F9305F087
:104A2000FFFB002862D1484605F00EFC079905F00F
:104A3000C8FB514605F0AEFB05F068FC391C05F0DB
:104A4000C0FB05F023FC03005B441F93F92B00D946
:104A500003E7792E00D900E712991F9B8C460721A6
:104A6000DA10194080230B416244A95C0B43AB541C
:104A7000189B092B00D0F4E6089B00219C46381CAB
:104A8000644405F0CDFB00281ED1484605F0DCFB50
:104A9000079905F096FB514605F07CFB05F036FCC6
:104AA000391C05F08EFB05F0F1FB24180CE01C9B73
:104AB000F92B21D95B46F92BCBD9189B092B00D0B8
:104AC000CFE6089B9C466444F92C00D9C9E6792EB0
:104AD00000D9C6E6129B07219C46802321400B414A
:104AE000E2106244A95C0B43AB54BAE65B46F92B77
:104AF000E3D8792EB0D9E0E7792E80D95B46F92B3F
:104B0000DBD9AEE6792E00D978E6129B07219C46C8
:104B1000802321400B41E2106244A95C0B43AB545B
:104B20006CE6149B00219C46644405F079FB002848
:104B300009D13C19F92C00D9E2E65FE6159B149CDB
:104B40009C466444D8E6F92C00D857E626E75F9ED9
:104B50003320312317900338149002302290023012
:104B6000089024982F212E222F241993012801D157
:104B7000FDF773FB012024901BE6179B9B46A34483
:104B800049E70F9A199B944663442993289BB3469F
:104B9000129303235B421993230063445F9331E034
:104BA000131D9946092B51DD1D9BF92B20D81800A8
:104BB0000A231C93033300279946159C792E0AD8A3
:104BC000129B07219C46802301400B41C210624486
:104BD000A95C0B43AB541C9B0A2B00D084E04B46D2
:104BE000092B01DC02F067FD1F9B092B00D1E3E0DC
:104BF000199B129A01332032199312920136042B19
:104C000000D116E10921199B8C461A005A4394449D
:104C100061461A331F911893002AC1D1209BF92BAA
:104C200000D914E12D99199B8C4626336344792BC6
:104C30000AD8209C0720E1105B015B1880212040EE
:104C40000141E85C0143E95404239946531C159A39
:104C50001C939446149B63441C00239BF92B00D99E
:104C6000EDE014000027792E00D9FBE01299DA104C
:104C70008C460721194080230B416244A95C0B43F9
:104C8000AB54149B00219C46381C644405F0C8FAC0
:104C9000002800D0D3E0189805F0D6FA079905F05F
:104CA00090FA514605F076FA05F030FB391C1E905B
:104CB00005F087FA05F0EAFA2418F92C00D9F0E09B
:104CC000792E0AD8129B07219C46802321400B4154
:104CD000E2106244A95C0B43AB541D98002703000B
:104CE000159CF92B00D869E7229B00219C46A4441F
:104CF00063461E93179B381C9946A1444B461C9350
:104D000005F08EFA002800D082E0189805F09CFA91
:104D1000079905F056FA514605F03CFA05F0F6FA07
:104D2000391C05F04EFA05F0B1FA1E9B9C468444EE
:104D300063461E93F92B25D8792E13D812991E9B02
:104D40008C460721DA10194080230B416244A95C8C
:104D50000B43AB544B460021381C1C9305F060FA02
:104D6000002868D1189805F06FFA079905F029FA1C
:104D7000514605F00FFA05F0C9FA391C05F021FA81
:104D800005F084FA03004B441C931C9BF92B00D9BB
:104D90002AE7792E00D927E712991C9B8C46072118
:104DA000DA10194080230B416244A95C0B43AB54D9
:104DB0001F9B092B00D01BE7089B00219C46381C39
:104DC000644405F02DFA002810D1189805F03CFA3B
:104DD000079905F0F6F9514605F0DCF905F096FA69
:104DE000391C05F0EEF905F051FA2418F92C00D918
:104DF000FEE6792E00D9FBE6129B07219C46802314
:104E000021400B41E2106244A95C0B43AB54EFE636
:104E10001E9BF92BB9D8792E90D94B46F92B00D986
:104E2000E6E61F9B092B00D0E2E6089B9C46644403
:104E3000DCE75E468CE64B46F92BAAD9F1E7F92C64
:104E400000D83DE7299B119F18000F9C49E75F9A06
:104E50000F9C1300119FF92A30D901231C930333AF
:104E600099460EE7149B00219C46381C644405F0CB
:104E7000D7F9002827D1189805F0E6F9079905F029
:104E8000A0F9514605F086F905F040FA011C1E9084
:104E9000381C05F096F905F0F9F90019F92800D841
:104EA0001BE7119F1E99381C05F08BF905F0EEF9F0
:104EB000299B0F9C9C466044030012E701221C9230
:104EC00003329146CFE6F92C00D806E7BAE7042270
:104ED0009346033A11981C9247E51C211620FBF7D4
:104EE00081FD1C211720FBF77DFD1C213020FBF7E5
:104EF00079FD1C213120FBF775FD089A57461300F8
:104F000021335C010023C2464D4616269946A04631
:104F10000C32159243460F9315230893331D1793B4
:104F2000B31E18934B461993069B994669E00923D3
:104F30009B46A3445B46102B00DCA3E00C2C00DC5A
:104F4000AAE11423119305339B46083B12930021D9
:104F5000281CF41905F064F9002800D094E10898A1
:104F600005F072F9079905F02CF9514605F012F990
:104F700005F0CCF9011C281C05F023F905F086F991
:104F80002418F92C00D852E1129B112B23D0741C49
:104F9000E419089805F058F9079905F012F95146F7
:104FA00005F0F8F805F0B2F9011C281C05F009F924
:104FB00005F06CF92418F92C00D995E00F9B072116
:104FC0009C46802321400B414946E2106244895CA3
:104FD0000B4349468B54119B102B01DC01F02CFA3A
:104FE0005B46102B00DCAAE0149B102B00D104E1DF
:104FF0000F9B20330F93089B013308931B2B00D189
:10500000C6E0089A159B94466344792BF0D8102388
:1050100014009C46193C6443A44463461493002C3A
:1050200085D1331F9B460021281CBB4405F0F8F8AE
:10503000002801D001F0F4F9089805F005F9079966
:1050400005F0BFF8514605F0A5F805F05FF9011C21
:10505000281C05F0B6F805F019F983445B46F92BD6
:105060000ED85B46DA100F9B07219C465B46194021
:1050700080230B4149466244895C0B4349468B546B
:1050800009239B46F31EDB190021281C119305F010
:10509000C7F8002815D1089805F0D6F8079905F04B
:1050A00090F8514605F076F805F030F9011C281CFF
:1050B00005F087F805F0EAF8119B9C4684446346A6
:1050C0001193119BF92B0CD80F99DA108C460721FC
:1050D000194080230B4149466244895C0B43494691
:1050E0008B54231D1193DBE0119B102B00DD77E720
:1050F000B41CE419089805F0A7F8079905F061F8C1
:10510000514605F047F805F001F9011C281C05F08F
:1051100058F805F0BBF82418F92C42D80F9B07214A
:105120009C46802321400B414946E2106244895C41
:105130000B4349468B545B46102B00DD54E7F41CAF
:105140000021281CE41905F06BF800282FD0F92C59
:1051500042D9149B102B00D04AE7341DE419F92CD6
:1051600000D945E70F9B07219C46802321400B4136
:105170004946E2106244895C0B4349468B540F9BBD
:1051800020330F93089B013308931B2B00D038E783
:10519000199B3026012B01D1FDF75FF801239946B9
:1051A000B8E65B46102B00DD1EE7F41CE4190898F6
:1051B00005F04AF8079905F004F8514604F0EAFFB3
:1051C00005F0A4F8011C281C04F0FBFF05F05EF8B4
:1051D0002418F92C00D907E70F9B07219C46802350
:1051E00021400B414946E2106244895C0B43494629
:1051F0008B54149B102B00D0FAE6179B0021281C1F
:10520000DC1905F00DF80028A9D1089805F01CF864
:10521000079904F0D6FF514604F0BCFF05F076F87C
:10522000291C04F0CEFF05F031F8241897E70F9AF7
:10523000494694460722E3101440793222416344E0
:10524000C95C0A434946CA54129B112B00D1C2E6DD
:10525000741C0021281CE41904F0E2FF002800D18E
:1052600097E6F92C00D8A9E6119B102B00DDB7E6D4
:10527000B41CE419F92C00D850E75B46102B00DD74
:10528000B2E6F41CE419A4E7F92CD0D9129B112B37
:10529000EAD0741CE419E4E70D23119305339B460F
:1052A000189B00219C46BC446346281C129304F0C2
:1052B000B7FF002851D1089804F0C6FF079904F001
:1052C00080FF514604F066FF05F020F8011C281C01
:1052D00004F077FF04F0DAFF129B9C468444634697
:1052E0001293F92B0DD80F99129B8C460721DA10D7
:1052F000194080230B4149466244895C0B4349466F
:105300008B54631C0021741E281C1293E41904F0B2
:1053100087FF002828D1089804F096FF079904F029
:1053200050FF514604F036FF04F0F0FF011C281C2A
:1053300004F047FF04F0AAFF2418F92C20D80F9B93
:1053400007219C46802321400B414946E2106244DC
:10535000895C0B4349468B54F9E5129BF92BC2D962
:10536000631C741E1293E419F92CE8D9F419F92C72
:1053700000D85CE7741CE419F92C00D81EE677E726
:10538000F419ECE5002604221B211920FBF774FF19
:1053900004221B212F20FBF76FFF01221821172069
:1053A000FBF762FB012218212D204F46FBF75CFB27
:1053B0000025B146A4E00A9B20001E680B9B1B68D9
:1053C000984604F041FF311C04F0FBFE414604F016
:1053D000E1FE04F09BFF391C04F0F3FE04F056FFDD
:1053E0004019F9281ED8089A230094460C336344C8
:1053F000792B12D8C21007215B019B188022014033
:105400000A410698C15C0A43C2540021381C04F0CA
:1054100007FF002801D001F034FC0A9B1E680B9B9B
:105420001B689846601C04F00FFF311C04F0C9FE95
:10543000414604F0AFFE04F069FF391C04F0C1FEE0
:1054400004F024FFA31C40199B46F9281CD8230014
:10545000089A0D339B1817D4792B0ADCC210072148
:105460005B019B18802201400A410698C15C0A43F7
:10547000C2540021381C04F0D3FE002815D10A9B29
:105480001E680B9B1B689846584604F0DDFE311CD5
:1054900004F097FE414604F07DFE04F037FF391C0E
:1054A00004F08FFE04F0F2FE2D18F92D11D8089AA1
:1054B000230094460E336344792B0AD8EA1007215F
:1054C0005B019B18802229400A410698C15C0A436F
:1054D000C25407980F990F30FBF784FA01239C46BA
:1054E000E1444B46122B4FD0484604F0ADFECE4966
:1054F00004F053FECD4904F064FE04F007FF051CE0
:10550000484604F0A1FEC84904F047FE8321C905BE
:10551000041C04F056FE04F0B9FEC54906000790CD
:10552000201C04F04EFEC34904F034FEC249041CA2
:10553000281C04F046FE011C201C04F028FE04F088
:10554000A5FE3500431C04000E350021381C5544CF
:105550000F9304F065FE002800D12CE7F92DB8D890
:10556000089A230094460C3363442800792B00D812
:1055700040E72300089A0D339B1898D4792B94DCCC
:10558000A21C2800934669E70021381C04F048FE5D
:10559000B9460026002800D0B6E000250BE0280020
:1055A00004F052FEA04904F0F8FDA04904F009FE01
:1055B00004F0ACFE061C280004F046FE9A4904F0F4
:1055C000ECFD8321C905041C04F0FBFD04F05EFE24
:1055D000974907000790201C04F0F3FD011C974831
:1055E00004F0D5FD9449041C301C04F0EAFD011CB4
:1055F000201C04F0CCFD04F049FE0A9B3E001B6811
:10560000040098460B9B28361F6804F01DFE414697
:1056100004F0D7FD391C04F0BDFD04F077FE011C39
:10562000484604F0CEFD04F031FE56448019F928B6
:1056300011D8089A230094460C336344792B0AD876
:10564000C2105B010721D218802301400B4106984C
:10565000815C0B438354631C18009B4604F0F4FDEB
:10566000414604F0AEFD391C04F094FD04F04EFEFA
:10567000011C484604F0A5FD04F008FE8219A01C98
:10568000F92A12D8230008990D335B180DD4792B11
:105690000BDCD1105B01C91807231A407933134181
:1056A000069A525C1343069A535404F0CDFD4146CA
:1056B00004F087FD391C04F06DFD04F027FE011C89
:1056C000484604F07EFD04F0E1FD8019F92810D869
:1056D000089B0E349C466444792C0AD80722802308
:1056E00002401341C110640106980919425C13433A
:1056F00043540798594629300135FBF773F9122DA9
:1057000000D04CE7FCF7A9FD0023B0461F00069C23
:105710000BE0380004F098FD434904F03EFD434996
:1057200004F04FFD04F0F2FD8046380004F08CFDDB
:105730003D4904F032FD8321C905061C04F041FDFA
:1057400004F0A4FD3A490500301C04F03AFD011CA8
:105750003A4804F01CFD3849061C404604F031FD6F
:10576000011C301C04F013FD04F090FD0300280020
:1057700028305A1C50449046F92834D8089E0B32E1
:10578000B4466244792A0BD8C610520192190726F2
:105790000640B446802661460E41A15C0E43A654E5
:1057A0001A0008990D3252180DD4792A0BDCC61054
:1057B0005201921907260640B446802661460E41E2
:1057C000A15C0E43A654089A0E3394466344792B89
:1057D00009D8C2105B019B180722104079320241A0
:1057E000E05C0243E2542800414629300137FBF7D0
:1057F000F9F8122F8DD1FCF730FD1A242000233840
:105800001921404304F00CF9010005002631200065
:10581000FBF7E8F82900200027310134FBF7E2F814
:105820002D2CEBD1FCF7AAFD00008841D00F494098
:105830000000A0400000A041000020400000C8413E
:10584000302291460E9B133A1B68944622930A9B82
:10585000069D1B6824930B9B1B682893099B1B6860
:1058600099444B465B019A460D9B57461B684E4632
:105870009C44624623921E2294469C44624619929E
:105880001F2294469C4462461C92202294469C44CB
:1058900062461192212294469C4462461292222230
:1058A00094469C4462461D92232294469C44624640
:1058B0000892242294469C446246149225229446DF
:1058C0009C4462461F92262294469C44624615924E
:1058D000272294469C4462461792282294469C4470
:1058E00029331E9304235B421893902362469B0046
:1058F0009B462092189A002113005343DC00E418C1
:105900002298A40004F08CFC002800D07AE1792EC3
:1059100037D82822062394465B429846189B634456
:10592000994623004446984602E00134072C28D0CB
:10593000230063431B0143445B45F6DC484604F007
:1059400083FC249904F03DFC289904F023FC04F026
:10595000DDFC011C229804F034FC04F097FC089B49
:10596000E318C018F928E0D807228121C310494262
:1059700010400141DB19EA5C01340A40EA54072C6B
:10598000D6D1189B0136013318932037052BB1D19E
:105990001E339B46CD4B5C469A4696239B00994608
:1059A00046E0E1239B009B46AB44D34500DC81E30A
:1059B000C74B9846A844D04500DC4BE3C8235B00A6
:1059C0009C46AC4463460793534573DDE1239C46F4
:1059D000AC4463460F9353457BDD64239C46AC4443
:1059E00063461193534500DC16E319239C46AC44EF
:1059F00063460893534500DC8AE021002320FAF730
:105A0000F1FF0F9B534500DCB4E0079B534500DCDE
:105A1000C3E0D04500DCD0E0D34500DCD8E0129BE9
:105A2000534500DCE1E001342E2C01D1FCF7A6FC4B
:105A30002300283B5B43DA00D31ADD00ED1A230074
:105A4000293B5B43DA00D31ADF00FF1A2300273B10
:105A50005B43DA00D31ADE00F61A9C4B9C46AC443A
:105A60006346129353459CDC9A4B9D4200DB14E342
:105A7000002F00D011E3002E00D00EE3E1239B00A5
:105A80009B46AB44A3235B009E4200DB12E3904B9A
:105A90009846A8444F4500DC16E321001E20FAF783
:105AA000A1FFC8235B009C46AC44634607934D4569
:105AB00000DCD9E221001F20FAF794FFE1239C4685
:105AC000AC4463460F93FA239B009F4201DC9E4245
:105AD00003DD21002020FAF785FF64239C46AC44B7
